:100000000C9462000C948A000C948A000C948A0070
:100010000C948A000C948A000C948A000C948A0038
:100020000C948A000C948A000C948A000C948A0028
:100030000C948A000C948A000C948A000C948A0018
:100040000C9448020C948A000C94B8020C9492020E
:100050000C948A000C948A000C948A000C948A00F8
:100060000C948A000C948A000000000023002600F3
:10007000290000000000240027002A0000000000E2
:10008000250028002B0004040404040404040202D4
:100090000202020203030303030301020408102007
:1000A0004080010204081020010204081020000012
:1000B0000008000201000003040700000000000027
:1000C00000009D0411241FBECFEFD8E0DEBFCDBFDE
:1000D00011E0A0E0B1E0E6E2FAE002C005900D9286
:1000E000A432B107D9F721E0A4E2B1E001C01D922A
:1000F000AA3CB207E1F710E0C2E6D0E004C02197C5
:10010000FE010E940B05C136D107C9F70E942F03DB
:100110000C9411050C94000090E0FC01E255FF4F97
:100120002491FC01E656FF4F3491FC01EA57FF4F42
:10013000E491EE23C9F0222339F0233001F1A8F431
:10014000213019F1223029F1F0E0EE0FFF1FE458C1
:10015000FF4FA591B4918FB7F894EC91611126C02F
:1001600030953E233C938FBF08952730A9F0283067
:10017000C9F0243049F7809180008F7D03C08091C1
:1001800080008F7780938000DFCF84B58F7784BD28
:10019000DBCF84B58F7DFBCF8091B0008F778093CC
:1001A000B000D2CF8091B0008F7DF9CF3E2BDACF57
:1001B000CF93DF9390E0FC01E656FF4F24918A57DE
:1001C0009F4FFC0184918823D1F090E0880F991F04
:1001D000FC01EE58FF4FA591B491FC01E458FF4F8C
:1001E000C591D49161110EC09FB7F8948C91E22F04
:1001F000E0958E238C932881E223E8839FBFDF91D3
:10020000CF9108958FB7F894EC91E22BEC938FBFC8
:10021000F6CF3FB7F8948091290190912A01A091DF
:100220002B01B0912C0126B5A89B05C02F3F19F0DA
:100230000196A11DB11D3FBFBA2FA92F982F882766
:10024000BC01CD01620F711D811D911D42E0660F41
:10025000771F881F991F4A95D1F70895AF92BF92D3
:10026000CF92DF92EF92FF920F931F93CF93DF9382
:100270006C017B018B01040F151FEB015E01AE18B1
:10028000BF08C017D10759F06991D601ED91FC91D3
:100290000190F081E02DC6010995892B79F7C50100
:1002A000DF91CF911F910F91FF90EF90DF90CF9052
:1002B000BF90AF900895FC01538D448D252F30E001
:1002C000842F90E0821B930B541710F0CF96089563
:1002D00001970895FC01918D828D981761F0A28D90
:1002E000AE0FBF2FB11D5D968C91928D9F5F9F7356
:1002F000928F90E008958FEF9FEF0895FC01918D0C
:10030000828D981731F0828DE80FF11D858D90E078
:1003100008958FEF9FEF0895FC01918D228D892F15
:1003200090E0805C9F4F821B91098F7399270895FD
:100330008DE291E00E948C0121E0892B09F420E0FC
:10034000822F089580E090E0892B29F00E94980187
:1003500081110C9400000895FC01A48DA80FB92F01
:10036000B11DA35ABF4F2C91848D90E001968F73DD
:100370009927848FA689B7892C93A089B1898C91FC
:10038000837080648C93938D848D981306C002884B
:10039000F389E02D80818F7D80830895EF92FF9215
:1003A0000F931F93CF93DF93EC0181E0888F9B8D98
:1003B0008C8D98131AC0E889F989808185FF15C052
:1003C0009FB7F894EE89FF896083E889F989808175
:1003D0008370806480839FBF81E090E0DF91CF9144
:1003E0001F910F91FF90EF900895F62E0B8D10E066
:1003F0000F5F1F4F0F731127E02E8C8D8E110CC0D5
:100400000FB607FCFACFE889F989808185FFF5CF1F
:10041000CE010E94AC01F1CFEB8DEC0FFD2FF11D51
:10042000E35AFF4FF0829FB7F8940B8FEA89FB895C
:1004300080818062CFCFCF93DF93EC01888D8823BA
:10044000B9F0AA89BB89E889F9898C9185FD03C037
:10045000808186FD0DC00FB607FCF7CF8C9185FF1C
:10046000F2CF808185FFEDCFCE010E94AC01E9CFB4
:10047000DF91CF910895FC0101900020E9F73197B9
:10048000AF01481B590BBC018DE291E00C942E0189
:100490001F920F920FB60F9211242F933F938F93B9
:1004A0009F93AF93BF938091250190912601A091D6
:1004B0002701B09128013091240123E0230F2D372B
:1004C00058F50196A11DB11D2093240180932501AB
:1004D00090932601A0932701B093280180912901D0
:1004E00090912A01A0912B01B0912C010196A11DA0
:1004F000B11D8093290190932A01A0932B01B09301
:100500002C01BF91AF919F918F913F912F910F90AF
:100510000FBE0F901F90189526E8230F0296A11D7D
:10052000B11DD2CF1F920F920FB60F9211242F93AD
:100530003F934F935F936F937F938F939F93AF936B
:10054000BF93EF93FF938DE291E00E94AC01FF9186
:10055000EF91BF91AF919F918F917F916F915F913B
:100560004F913F912F910F900FBE0F901F901895B4
:100570001F920F920FB60F9211242F938F939F9378
:10058000EF93FF93E0913D01F0913E018081E09176
:100590004301F091440182FD1BC09081809146018E
:1005A0008F5F8F7320914701821741F0E0914601E0
:1005B000F0E0E35DFE4F958F80934601FF91EF9150
:1005C0009F918F912F910F900FBE0F901F901895B4
:1005D0008081F4CFCF92DF92EF92FF920F931F931F
:1005E000E82FF92F05C0015011092109310961F1E6
:1005F000908196239417B9F305C001501109210980
:10060000310911F1908196239413F7CFC12CD12C8D
:10061000E12CF12C0AC08FEFC81AD80AE80AF80AB0
:100620000C151D052E053F0579F080818623841762
:1006300091F36C2D7D2D8E2D9F2D1F910F91FF908D
:10064000EF90DF90CF90089560E070E080E090E060
:100650001F910F91FF90EF90DF90CF900895CF936F
:10066000DF93CDB7DEB7A1970FB6F894DEBF0FBE0C
:10067000CDBF789484B5826084BD84B5816084BD2B
:1006800085B5826085BD85B5816085BD80916E0030
:10069000816080936E001092810080918100826061
:1006A000809381008091810081608093810080919E
:1006B00080008160809380008091B100846080938D
:1006C000B1008091B00081608093B00080917A0089
:1006D000846080937A0080917A00826080937A00AF
:1006E00080917A00816080937A0080917A0080689E
:1006F00080937A001092C100E0913D01F0913E019B
:1007000082E08083E0913901F0913A011082E0911A
:100710003B01F0913C018FEC808310924501E09108
:100720004101F091420186E08083E0913F01F09128
:100730004001808180618083E0913F01F091400120
:10074000808188608083E0913F01F0914001808149
:1007500080688083E0913F01F091400180818F7D2E
:10076000808361E087E00E94D80060E086E00E941C
:10077000D80061E08DE00E94D80061E08CE00E942A
:10078000D80061E08BE00E94D80061E089E00E941F
:10079000D80061E088E00E94D80061E08AE00E9411
:1007A000D80061E08BE00E94D80061E08BE00E94FD
:1007B0008C0061E08AE00E94D80061E08AE00E943B
:1007C0008C002AE0422E512C612C712C30E0232E1B
:1007D00030E0332E60E087E00E948C0083E090E000
:1007E0000197F1F761E087E00E948C0083E290E0DE
:1007F0000197F1F760E087E00E948C00E0EAF0E00A
:100800006491ECE8F0E08491E82FF0E0EE0FFF1F38
:10081000E859FF4F8591949100E412E42FE030E015
:10082000462F0E94EA02611571058105910529F0A4
:100830006F5F7F4F8F4F9F4F9F702AE330E040E004
:1008400050E00E94EC0449015A0182E191E00E94CB
:100850003B02A501940119A27E01F1E2EF0EF11C09
:10086000CA01B901A30192010E94CA04605DF701A7
:1008700062937F01211531054105510589F73097B4
:1008800019F0CF010E943B028DE191E00E943B02F2
:1008900081E291E00E943B02FFE18F169104A104E6
:1008A000B1040CF440C061E08DE00E948C0060E077
:1008B0008CE00E948C0061E089E00E948C0060E086
:1008C00088E00E948C000E9409014B015C0184E6D3
:1008D000C82ED12CE12CF12C0E940901681979094C
:1008E0008A099B09683E734081059105A8F321E0C0
:1008F000C21AD108E108F10888EE880E83E0981E3C
:10090000A11CB11CC114D104E104F10429F7211484
:10091000310409F45FCF0E949801882309F45ACF6B
:100920000E94000057CF60E08DE00E948C0060E0E4
:100930008CE00E948C0060E0BFCFEDE2F1E013821A
:10094000128288EE93E0A0E0B0E084839583A683D2
:10095000B78384E091E09183808385EC90E0958774
:10096000848784EC90E09787868780EC90E0918B79
:10097000808B81EC90E0938B828B82EC90E0958B66
:10098000848B86EC90E0978B868B118E128E138E63
:10099000148E0895A1E21A2EAA1BBB1BFD010DC0E7
:1009A000AA1FBB1FEE1FFF1FA217B307E407F5071F
:1009B00020F0A21BB30BE40BF50B661F771F881FFB
:1009C000991F1A9469F760957095809590959B0191
:1009D000AC01BD01CF010895052E97FB1EF40094D4
:1009E0000E94030557FD07D00E94CA0407FC03D0EC
:1009F0004EF40C94030550954095309521953F4F4A
:100A00004F4F5F4F089590958095709561957F4FFA
:100A10008F4F9F4F0895EE0FFF1F0590F491E02D2B
:060A20000994F894FFCFD9
:100A260000000000CE012E015B011B028C016A0151
:100A36007E0144697374616E63653A200020636DBC
:040A4600000D0A0095
:00000001FF
